:100000000C9434000C9446000C9446000C9446006A
:100010000C9448000C9446000C9446000C94460046
:100020000C9446000C9446000C9446000C94460038
:100030000C9446000C9446000C9446000C94460028
:100040000C9446000C9446000C9446000C94460018
:100050000C9446000C9446000C9446000C94460008
:100060000C9446000C94460011241FBECFEFD8E03C
:10007000DEBFCDBF21E0A0E0B1E001C01D92A13004
:10008000B207E1F70E94D6000C94DC000C9400004B
:100090001F920F920FB60F9211248F9335991CC0A7
:1000A00080910001882341F080910001833021F08C
:1000B00080910001843021F482E0809300010CC023
:1000C00080910001823021F080910001853021F47F
:1000D000599883E08093000134991CC080910001FD
:1000E000882341F080910001853021F0809100014A
:1000F000823021F484E0809300010CC080910001E3
:10010000843021F080910001833021F4589885E0FB
:10011000809300018F910F900FBE0F901F90189544
:1001200080910001833091F028F4882341F08230DF
:1001300051F008958430C1F08530C9F008958BB135
:100140008C7F8BB90895589A599808959BB181E096
:1001500089278BB92FEF89E698E1215080409040A4
:10016000E1F700C000000895599A589808959BB18E
:1001700082E089278BB92FEF89E698E121508040F2
:100180009040E1F700C0000008958AB183608AB909
:1001900088B1806388B9E8E6F0E08081826080837E
:1001A000ECE6F0E080818063808308950E94C500C2
:0C01B00078940E949000FDCFF894FFCFDF
:00000001FF
