S01300005072616B7472696B756D332E73726563B4
S11300000C9434000C9446000C9446000C94460066
S11300100C9446000C9446000C9446000C94460044
S11300200C9446000C9446000C9446000C94480032
S11300300C9446000C9446000C9446000C94460024
S11300400C9446000C9446000C9446000C94460014
S11300500C9446000C9446000C9446000C94460004
S11300600C9446000C94460011241FBECFEFD8E038
S1130070DEBFCDBF21E0A0E0B1E001C01D92A430FD
S1130080B207E1F70E94A6000C94BC000C94000097
S11300901F920F920FB60F9211248F939F93AF93D9
S11300A0BF938091000190910101A0910201B09150
S11300B003010196A11DB11D8093000190930101DC
S11300C0A0930201B0930301BF91AF919F918F91CF
S11300D00F900FBE0F901F901895E0E8F0E080811C
S11300E080648083E1E8F0E08081886080838FE031
S11300F090E09093890080938800AFE6B0E08C9103
S113010082608C9380818560808308950F931F9310
S11301108B019C0140910001509101016091020109
S1130120709103018091000190910101A09102015D
S1130130B0910301841B950BA60BB70B8017910795
S1130140A207B30778F31F910F910895F8940E94C2
S11301506D008AB183608AB97894589A64EF71E02B
S113016080E090E00E948600589864EF71E080E09F
S10F017090E00E948600F1CFF894FFCFCD
S9030000FC
