S01200005072616B74696B756D342E7372656326
S11300000C9434000C9451000C9451000C94510045
S11300100C9461000C9451000C9451000C94510008
S11300200C9451000C9451000C9451000C94510008
S11300300C9451000C9451000C9451000C945100F8
S11300400C9451000C9451000C9451000C945100E8
S11300500C9451000C9451000C9451000C945100D8
S11300600C9451000C94510011241FBECFEFD8E022
S1130070DEBFCDBF11E0A0E0B1E0E6EEF1E002C0EA
S113008005900D92AA30B107D9F721E0AAE0B1E0BA
S113009001C01D92AB30B207E1F70E94E0000C945E
S11300A0F1000C94000088B1806388B9E8E6F0E0C0
S11300B0808182608083ECE6F0E0808180638083CD
S11300C008951F920F920FB60F9211242F933F930E
S11300D04F935F936F937F938F939F93AF93BF934C
S11300E0EF93FF93359B0E94C700349B0E94D3007B
S11300F0FF91EF91BF91AF919F918F917F916F91FC
S11301005F914F913F912F910F900FBE0F901F90D1
S113011018958AB18F678AB9209A0895672B11F0D0
S1130120289801C0289AFC01E050FF4F80818095F7
S11301308BB98FE39FE10197F1F700C000000895A8
S1130140CF93DF9380910A01D0910A01CDEC8C9F6B
S1130150812D112486958695869560E070E090E067
S11301600E948E00DC9FC12D1124C695C695C695AC
S1130170CC0F8C2F880F880FC80F8D2F8C1B61E03C
S113018070E090E00E948E00DF91CF9108958091FD
S11301900A018F5F80930A0180910A01843610F06E
S11301A010920A01089580910A01815080930A01F6
S11301B080910A01843618F083E680930A01089539
S11301C00E9453000E94890078940E94A0002FEF9F
S11301D080EE90E0215080409040E1F700C00000A4
S10901E0F4CFF894FFCFF8
S10D01E63F065B4F666D7D077F6FD7
S9030000FC
